:100000000C9462000C948A000C948A000C948A0070
:100010000C948A000C948A000C948A000C948A0038
:100020000C948A000C948A000C948A000C948A0028
:100030000C948A000C948A000C948A000C948A0018
:100040000C9475050C948A000C94E5050C94BF057E
:100050000C948A000C948A000C948A000C948A00F8
:100060000C9417060C948A0000000000240027005E
:100070002A0000000000250028002B0000000000DE
:1000800023002600290004040404040404040202DA
:100090000202020203030303030301020408102007
:1000A0004080010204081020010204081020000012
:1000B0000008000201000003040700000000000027
:1000C0000000360711241FBECFEFD8E0DEBFCDBF42
:1000D00011E0A0E0B1E0E6EFF5E102C005900D927D
:1000E000A236B107D9F723E0A2E6B1E001C01D9224
:1000F000A934B207E1F710E0C2E6D0E004C02197CE
:10010000FE010E94F30AC136D107C9F70E94EB072E
:100110000C94F90A0C94000096E0899FD0011124F8
:10012000A652BD4F90967C936E935F9791E0919607
:100130009C939197E0914703F09148039091460377
:10014000992339F0309751F0811108C08091F6025F
:100150000994309719F05C968C91FACF0895CF925C
:10016000DF92EF92FF920F931F9396E0899FF00129
:100170001124E652FD4F11A2278D30A12130310507
:1001800051F178F02230310509F451C023303105A6
:1001900009F452C01F910F91FF90EF90DF90CF9024
:1001A00008956623B9F361E070E00E948C002FB7D8
:1001B000F8948091210290912202A0912302B091A3
:1001C00024022FBF8093320390933303A093340310
:1001D000B0933503DFCF9FB7F894C0902102D09041
:1001E0002202E0902302F09024029FBF009132038C
:1001F000109133032091340330913503C01AD10A92
:10020000E20AF30A009144031091450330E020E034
:100210000C151D052E053F0550F462E070E01F919E
:100220000F91FF90EF90DF90CF900C948C006111B4
:10023000B1CF63E070E0F3CF70E060E0F0CF8330E7
:1002400081F028F4813099F08230A9F00895873048
:10025000A9F08830C9F08430B1F4809180008F7D9E
:1002600003C0809180008F7780938000089584B5CB
:100270008F7784BD089584B58F7DFBCF8091B000CA
:100280008F778093B00008958091B0008F7DF9CF73
:10029000CF93DF93282F30E0F901E255FF4F84918F
:1002A000F901E656FF4FD491F901EA57FF4FC49187
:1002B000CC23A1F081110E941F01EC2FF0E0EE0F82
:1002C000FF1FE458FF4FA591B491EC91ED2381E01D
:1002D00090E009F480E0DF91CF91089580E090E014
:1002E000FACF1F93CF93DF93282F30E0F901E25527
:1002F000FF4F8491F901E656FF4FD491F901EA5777
:10030000FF4FC491CC23A9F0162F81110E941F0129
:10031000EC2FF0E0EE0FFF1FEE58FF4FA591B491C8
:100320008FB7F894EC91111108C0D095DE23DC93BF
:100330008FBFDF91CF911F910895DE2BF8CFCF9320
:10034000DF9390E0FC01E656FF4F24918A579F4FC0
:10035000FC0184918823C9F090E0880F991FFC016B
:10036000E859FF4FA591B491FC01EE58FF4FC5919C
:10037000D49161110DC09FB7F8948C912095822380
:100380008C938881282328839FBFDF91CF91089584
:10039000623051F49FB7F8943C91822F809583236B
:1003A0008C93E8812E2BEFCF8FB7F894EC912E2B06
:1003B0002C938FBFEACF3FB7F89480911D029091A4
:1003C0001E02A0911F02B091200226B5A89B05C075
:1003D0002F3F19F00196A11DB11D3FBFBA2FA92FC4
:1003E000982F8827BC01CD01620F711D811D911DC1
:1003F00042E0660F771F881F991F4A95D1F708952D
:10040000862F642F0C949F01862F642F0C9471010A
:10041000862F0C94480108950895AF92BF92CF9211
:10042000DF92EF92FF920F931F93CF93DF936C01B4
:100430007B018B01040F151FEB015E01AE18BF0895
:10044000C017D10759F06991D601ED91FC91019047
:10045000F081E02DC6010995892B79F7C501DF915F
:10046000CF911F910F91FF90EF90DF90CF90BF90B1
:10047000AF900895FC01538D448D252F30E0842FDB
:1004800090E0821B930B541710F0CF9608950197BC
:100490000895FC01918D828D981761F0A28DAE0FA9
:1004A000BF2FB11D5D968C91928D9F5F9F73928F30
:1004B00090E008958FEF9FEF0895FC01918D828D5C
:1004C000981731F0828DE80FF11D858D90E0089529
:1004D0008FEF9FEF0895FC01918D228D892F90E081
:1004E000805C9F4F821B91098F739927089585E245
:1004F00092E00E946B0221E0892B09F420E0822F18
:10050000089580E090E0892B29F00E947702811104
:100510000C9400000895FC01A48DA80FB92FB11D03
:10052000A35ABF4F2C91848D90E001968F73992729
:10053000848FA689B7892C93A089B1898C91837007
:1005400080648C93938D848D981306C00288F38900
:10055000E02D80818F7D80830895EF92FF920F932D
:100560001F93CF93DF93EC0181E0888F9B8D8C8D5F
:1005700098131AC0E889F989808185FF15C09FB753
:10058000F894EE89FF896083E889F9898081837016
:10059000806480839FBF81E090E0DF91CF911F91C5
:1005A0000F91FF90EF900895F62E0B8D10E00F5FE6
:1005B0001F4F0F731127E02E8C8D8E110CC00FB6BC
:1005C00007FCFACFE889F989808185FFF5CFCE0154
:1005D0000E948B02F1CFEB8DEC0FFD2FF11DE35A42
:1005E000FF4FF0829FB7F8940B8FEA89FB898081D7
:1005F0008062CFCFCF93DF93EC01888D8823B9F051
:10060000AA89BB89E889F9898C9185FD03C080811D
:1006100086FD0DC00FB607FCF7CF8C9185FFF2CF9A
:10062000808185FFEDCFCE010E948B02E9CFDF9163
:10063000CF9108952091CA01260F3327331F21320D
:100640003105ECF42091EE01FC0190E080E02430D3
:1006500069F082E00895A091CA012191AC0146554C
:100660005E4FA40FB52FB11D2C930196861798F3FA
:100670008091CA01680F6093CA0180E0089581E00B
:1006800008951092EE0181E08093F0011092EF0145
:1006900061E082E10E94710161E083E10E947101E9
:1006A000E9EBF0E080818E7F808380818D7F808385
:1006B00088E48093B80085E48093BC000895CF93CC
:1006C000DF9391E09093A9018823B9F0C091B8001D
:1006D000D091BA008091BC008A7B8093BC0060E01E
:1006E00082E10E94710160E083E10E9471010E9439
:1006F0004103D093BA00C093B800DF91CF91089521
:100700000895E0911B0280911A02E81730F4F0E09E
:10071000EC57FE4F808190E008958FEF9FEF089592
:1007200090911B0280911A022FEF3FEF981748F427
:10073000E92FF0E0EC57FE4F208130E09F5F90936F
:100740001B02C901089580911A0290911B02891B16
:10075000990B0895CF92DF92EF92FF920F931F9320
:10076000CF93DF937C01CB018A0120918301222367
:1007700089F0EB016B01C40ED51ECC15DD0569F0C7
:100780006991D701ED91FC910190F081E02DC701B5
:100790000995F3CF642F0E941A03C801DF91CF910E
:1007A0001F910F91FF90EF90DF90CF900895CF931E
:1007B000DF931F92CDB7DEB7698320918301222397
:1007C000F9F020911802203258F021E030E0FC01CD
:1007D0003383228390E080E00F90DF91CF910895E2
:1007E00080911902E82FF0E0ED59FE4F9981908336
:1007F0008F5F809319028093180281E090E0ECCF24
:1008000061E0CE0101960E941A03F7CFCF92DF92EA
:10081000EF92FF920F931F93CF93DF93D62F672F03
:10082000FC01C48181E080938301C0936201109236
:1008300019021092180282EC92E00E94D7036D2FE9
:1008400082EC92E00E94D703D0911802D13208F0D6
:1008500092C00E94DB016B017C018091EE0181114D
:1008600065C082E08093EE0181E08093F0018FEF1C
:100870008093ED0110921202D0931102A3E6B1E031
:10088000E1EFF1E080E0D81385C01092130280916F
:100890001302CC0FC82BC09313028091EF0181305B
:1008A00009F07CC01092EF010E94DB016B017C011A
:1008B000809113028093BB008091A5019091A601C5
:1008C000A091A701B091A801892B8A2B8B2B99F0BD
:1008D0000E94DB010091A5011091A6012091A701C2
:1008E0003091A8016C197D098E099F090617170719
:1008F00028073907E0F18091BC0083FDD9CF85EC52
:100900008093BC000E94DB016B017C018091EE01B1
:10091000823009F445C08091ED018F3F61F18091F3
:10092000ED01803241F18091ED0125C08091A5015A
:100930009091A601A091A701B091A801892B8A2BC3
:100940008B2B09F48ACF0E94DB010091A501109145
:10095000A6012091A7013091A8016C197D098E098B
:100960009F09061717072807390708F076CF8091E7
:10097000A4010E945F0310921902109218021092B3
:100980008301DF91CF911F910F91FF90EF90DF9046
:10099000CF9008959D9191938F5F75CF85EEB0CFE5
:1009A0008091A5019091A601A091A701B091A80105
:1009B000892B8A2B8B2B09F4A9CF0E94DB01009194
:1009C000A5011091A6012091A7013091A8016C19F1
:1009D0007D098E099F09061717072807390708F0B0
:1009E00095CFC5CFCF93DF93CDB7DEB728970FB69E
:1009F000F894DEBF0FBECDBF98E0E3E1F1E0DE0189
:100A0000119601900D929A95E1F79091D602981760
:100A100008F48FEF90E0880F991F21E030E02C0F51
:100A20003D1F820F931FFC016081606870E08EECB7
:100A300092E028960FB6F894DEBF0FBECDBFDF91CF
:100A4000CF910C94060470E070640E94060481E06B
:100A500090E00895089590E080E00895FB010190F2
:100A60000020E9F73197AF01461B570BDC01ED91F0
:100A7000FC910280F381E02D099485ED8093BC0008
:100A80008091A5019091A601A091A701B091A80124
:100A90000796A11DB11D23E0B695A795979587955B
:100AA0002A95D1F72091BC0024FD03C01092EE01DD
:100AB00008954091A5015091A6016091A701709100
:100AC000A801452B462B472B69F30097A105B105DB
:100AD00041F02AE22A95F1F700C00197A109B10976
:100AE000E1CF8091A4010C945F031F920F920FB687
:100AF0000F9211242F933F938F939F93AF93BF93A4
:100B00008091210290912202A0912302B0912402AF
:100B100030911C0223E0230F2D3758F50196A11DBB
:100B2000B11D20931C028093210290932202A09376
:100B30002302B093240280911D0290911E02A09185
:100B40001F02B09120020196A11DB11D80931D02CC
:100B500090931E02A0931F02B0932002BF91AF9109
:100B60009F918F913F912F910F900FBE0F901F90EB
:100B7000189526E8230F0296A11DB11DD2CF1F9212
:100B80000F920FB60F9211242F933F934F935F93C1
:100B90006F937F938F939F93AF93BF93EF93FF9345
:100BA00085E292E00E948B02FF91EF91BF91AF919D
:100BB0009F918F917F916F915F914F913F912F9175
:100BC0000F900FBE0F901F9018951F920F920FB6A7
:100BD0000F9211242F938F939F93EF93FF93E091A4
:100BE0003502F09136028081E0913B02F0913C02A7
:100BF00082FD1BC0908180913E028F5F8F73209198
:100C00003F02821741F0E0913E02F0E0EB5DFD4FC4
:100C1000958F80933E02FF91EF919F918F912F913D
:100C20000F900FBE0F901F9018958081F4CF1F92E8
:100C30000F920FB60F9211242F933F934F935F9310
:100C40006F937F938F939F93AF93BF93EF93FF9394
:100C50008091B900887F803609F44AC0F0F5883267
:100C600009F4A7C018F5803109F49BC0B8F48823B3
:100C700009F4F9C0883009F494C0FF91EF91BF9155
:100C8000AF919F918F917F916F915F914F913F9124
:100C90002F910F900FBE0F901F901895883109F477
:100CA00088C0803251F78093ED0114C0803409F47C
:100CB0009DC040F48033B9F38833F9F68093ED0199
:100CC00085ECB0C0803509F485C0883509F496C03C
:100CD000883499F60E943D05D0CF883909F48CC03C
:100CE00038F5883729F050F4883611F0803729F626
:100CF00083E08093EE011092EC0157C0883809F42C
:100D00007BC0803919F0803809F0B7CF8091EC01B1
:100D1000803208F071C0E091EC0181E08E0F809389
:100D2000EC018091BB00F0E0E453FE4F80833DC0B6
:100D3000803B39F0E0F4803A09F479C0883A09F050
:100D40009CCF84E08093EE011092CB011092CA01F7
:100D5000E0911602F091170209958091CA01811164
:100D60000FC081E08093CA011092AA0109C0803CA3
:100D700009F4A6CF883C09F4A3CF883B09F07DCFC6
:100D8000E091CB0181E08E0F8093CB01F0E0E6553E
:100D9000FE4F80818093BB009091CB018091CA016E
:100DA00029C0809113028093BB0085EC8093BC0026
:100DB00064CF9091120280911102981758F5E0913A
:100DC000120281E08E0F80931202F0E0EF50FE4F8E
:100DD0008081E9CFE091120281E08E0F80931202B0
:100DE0008091BB00F0E0EF50FE4F808390911202A3
:100DF000809111029817C8F285E8D8CFE0911202CD
:100E000081E08E0F809312028091BB00F0E0EF50E2
:100E1000FE4F80838091F00181115CCF81E080934F
:100E2000EF0184EA8093BC001092EE0126CF85EC9E
:100E30008093BC001092EE018091EC01803230F47E
:100E4000E091EC01F0E0E453FE4F10826091EC0180
:100E500070E0E0911402F09115028CEC91E009959C
:100E60001092EC010ACF1092ED0134CF10922802BB
:100E70001092270288EE93E0A0E0B0E08093290270
:100E800090932A02A0932B02B0932C022FE131E021
:100E9000309326022093250225EC30E03093320275
:100EA0002093310224EC30E030933402209333025B
:100EB00020EC30E0309336022093350221EC30E014
:100EC000309338022093370222EC30E030933A021C
:100ED0002093390226EC30E030933C0220933B0211
:100EE00010923E0210923F02109240021092410274
:100EF0001092C5021092C4028093C6029093C7025A
:100F0000A093C802B093C90281E391E09093C30219
:100F10008093C2021092DC021092E0021092DF0273
:100F20001092E1028FE491E09093DB028093DA0269
:100F3000E6EFF2E01082148213821582369683E087
:100F4000E233F807B9F783E091E090933D03809393
:100F50003C0380E091E090933F0380933E0384E064
:100F60008093400383E08093410387E091E0909376
:100F70003B0380933A038AE090E09093430380938D
:100F8000420384EF91E090934503809344031092D1
:100F900048031092470310923603109237031092C1
:100FA000380310923903109246031092D102109226
:100FB000D00283E491E09093CF028093CE0210920E
:100FC000D7028EE38093D20280E18093D80282E040
:100FD0008093D9020895CF93DF93CDB7DEB7A19761
:100FE0000FB6F894DEBF0FBECDBF789484B5826093
:100FF00084BD84B5816084BD85B5826085BD85B5BD
:10100000816085BD80916E00816080936E0010923A
:1010100081008091810082608093810080918100B5
:101020008160809381008091800081608093800046
:101030008091B10084608093B1008091B0008160A4
:101040008093B00080917A00846080937A008091D0
:101050007A00826080937A0080917A008160809328
:101060007A0080917A00806880937A001092C100A3
:1010700061E08EE00E949F0161E08FE00E949F018D
:1010800061E080E10E949F0161E081E10E949F0197
:1010900061E089E00E949F01E0913502F091360203
:1010A00082E08083E0913102F09132021082E0917F
:1010B0003302F09134028FEC808310923D02E09174
:1010C0003902F0913A0286E08083E0913702F09194
:1010D0003802808180618083E0913702F09138028C
:1010E000808188608083E0913702F09138028081AE
:1010F00080688083E0913702F091380280818F7D93
:10110000808365E571E085E292E00E942E0568E546
:1011100071E085E292E00E942E0561E08EE00E947F
:10112000710161E08FE00E94710161E080E10E9445
:10113000710161E081E10E94710161E089E00E943A
:1011400071010E94DB014B015C017AEFC72ED12CAB
:10115000E12CF12C0E94DB01681979098A099B09AD
:10116000683E734081059105A8F321E0C21AD108B9
:10117000E108F10858EE850E53E0951EA11CB11C44
:10118000C114D104E104F10429F760E089E00E9470
:10119000710110921B0210921A0210921902109201
:1011A00018020E9441038BE092E090931702809313
:1011B00016028CE092E0909315028093140280E175
:1011C0008093D3028091D902823018F098E19093F5
:1011D000D3028093D6028BE39DE00197F1F76091F3
:1011E000D302606270E08EEC92E00E9406048BE411
:1011F00096E40197F1F76091D302606270E08EECA3
:1012000092E00E94060483E592E00197F1F7609175
:10121000D302606270E08EEC92E00E94060460915E
:10122000D302606270E08EEC92E00E94060484E0DB
:101230008093D4026CE070E08EEC92E00E94060491
:1012400061E070E08EEC92E00E9406048BE39FE187
:101250000197F1F78091D702882319F080E00E946E
:10126000F20482E08093D50266E070E08EEC92E0BA
:101270000E94060462E070E08EEC92E00E94060498
:101280008BE39FE10197F1F780E00E94F2046BE5A8
:1012900071E08EEC92E00E942E0581E00E94F20443
:1012A00019A28E010F5D1F4F25E134E440E050E0AC
:1012B0006AE0862E912CA12CB12C7E01FCE1EF0E70
:1012C000F11CCA01B901A50194010E94D10A605D17
:1012D000F80162938F01EE15FF0599F7BF018EECBF
:1012E00092E00E942E05412C512C3201439440E0A3
:1012F000842E40E0942EF1E0F09346038FB7F894EB
:1013000040912102509122026091230270912402A7
:101310008FBF8091360390913703A0913803B0912D
:101320003903481B590B6A0B7B0B80914203909148
:101330004303B0E0A0E084179507A607B70708F0BD
:1013400020C110E080914003181760F4E0913C0345
:10135000F0913D03E10FF11D62E080810E949F0149
:101360001F5FF0CF312C80914103381608F061C027
:10137000E32CF12CE0913E03F0913F03EE0DFF1DB5
:1013800061E080810E949F01E0913E03F0913F0364
:10139000EE0DFF1D60E080810E947101D301C2014A
:1013A000032C04C0880F991FAA1FBB1F0A94D2F7F1
:1013B0005C016C01C094D094212C809140032816CC
:1013C00008F5022D10E0E0913C03F0913D03E00FA1
:1013D000F11F80810E9448010C5F1F4F000F111FF9
:1013E000F801E652FD4F892B41F4808191818A29D1
:1013F0009B29918380832394E0CF808191818C21EC
:101400009D21F7CFE0913E03F0913F03EE0DFF1DCC
:1014100061E080810E94710180913E0390913F03C1
:10142000E80EF91E60E0F70180810E949F0133946D
:101430009ACF0AED12E07801F701878D90A1892BF0
:1014400031F4148E8FEF9FEF968F858F11A296E067
:10145000E90EF11CE6E1EE16E3E0FE0669F7B12CB9
:1014600080914003B81608F053C0A12CCB2CD12C8E
:10147000CC0CDD1CC6018E519D4F6C0120914103A7
:10148000A21608F043C0F601608171810A2C02C0E7
:10149000769567950A94E2F7B29E900111242A0D81
:1014A000311DEAEDF2E080E0458D568D24173507B9
:1014B00009F475C08F5F36968A30B1F760FF24C09B
:1014C000EAEDF2E090E080E0448D411118C0E09137
:1014D0003A03F0913B03E20FF31F408156E0589F1F
:1014E000F001599FF00D1124E652FD4F448F368FC5
:1014F000258F10A2178E61E00E94AF0005C00196F3
:1015000036968A30910501F7A394B8CFB394A8CF4B
:1015100080E0F80191A19111892F0A5F1F4FE01619
:10152000F106B9F79FB7F894409121025091220239
:1015300060912302709124029FBF40933603509321
:10154000370360933803709339038823D1F0809177
:10155000FB028823B1F08091F9029091FA02019781
:1015600081F41091F60211110FC08114910409F455
:10157000C2CE0E947702882309F4BDCE0E940000EB
:10158000BACE10924603F1CF80E00E94F204612FA0
:1015900070E070648EEC92E00E940604E6CF617009
:1015A000ABCFA1E21A2EAA1BBB1BFD010DC0AA1FC7
:1015B000BB1FEE1FFF1FA217B307E407F50720F0BC
:1015C000A21BB30BE40BF50B661F771F881F991F37
:1015D0001A9469F760957095809590959B01AC0180
:1015E000BD01CF010895EE0FFF1F0590F491E02D8E
:0615F0000994F894FFCFFE
:1015F60008070602030405313233343536373839E5
:101606002A3023000040001400540000000000AD02
:10161600020D023A02FA026B0249025D0200000064
:1016260000D703AA032B058003A3039003810300BD
:1016360000000023050D022B052A0500000000000E
:1016460002040208024869000D0A00486F6C6161D5
:02165600610031
:00000001FF
