:100000000C9462000C948A000C948A000C948A0070
:100010000C948A000C948A000C948A000C948A0038
:100020000C948A000C948A000C948A000C948A0028
:100030000C948A000C948A000C948A000C948A0018
:100040000C94B9050C948A000C9429060C940306B0
:100050000C948A000C948A000C948A000C948A00F8
:100060000C945B060C948A0000000000240027001A
:100070002A0000000000250028002B0000000000DE
:1000800023002600290004040404040404040202DA
:100090000202020203030303030301020408102007
:1000A0004080010204081020010204081020000012
:1000B0000008000201000003040700000000000027
:1000C00000007A0711241FBECFEFD8E0DEBFCDBFFE
:1000D00011E0A0E0B1E0E0EDF5E102C005900D9285
:1000E000AA37B107D9F723E0AAE7B1E001C01D9212
:1000F000A136B207E1F710E0C2E6D0E004C02197D4
:10010000FE010E94E00AC136D107C9F70E942F08FC
:100110000C94E60A0C94000096E0899FD00111240B
:10012000AE50BD4F90967C936E935F9791E0919601
:100130009C939197E0915F03F091600390915E032F
:10014000992339F0309751F0811108C080910E0346
:100150000994309719F05C968C91FACF0895CF925C
:10016000DF92EF92FF920F931F9396E0899FF00129
:100170001124EE50FD4F11A2278D30A12130310501
:1001800051F178F02230310509F451C023303105A6
:1001900009F452C01F910F91FF90EF90DF90CF9024
:1001A00008956623B9F361E070E00E948C002FB7D8
:1001B000F8948091390290913A02A0913B02B0915B
:1001C0003C022FBF80934A0390934B03A0934C03B0
:1001D000B0934D03DFCF9FB7F894C0903902D09011
:1001E0003A02E0903B02F0903C029FBF00914A032C
:1001F00010914B0320914C0330914D03C01AD10A4A
:10020000E20AF30A00915C0310915D0330E020E004
:100210000C151D052E053F0550F462E070E01F919E
:100220000F91FF90EF90DF90CF900C948C006111B4
:10023000B1CF63E070E0F3CF70E060E0F0CF8330E7
:1002400081F028F4813099F08230A9F00895873048
:10025000A9F08830C9F08430B1F4809180008F7D9E
:1002600003C0809180008F7780938000089584B5CB
:100270008F7784BD089584B58F7DFBCF8091B000CA
:100280008F778093B00008958091B0008F7DF9CF73
:10029000CF93DF93282F30E0F901E255FF4F84918F
:1002A000F901E656FF4FD491F901EA57FF4FC49187
:1002B000CC23A1F081110E941F01EC2FF0E0EE0F82
:1002C000FF1FE458FF4FA591B491EC91ED2381E01D
:1002D00090E009F480E0DF91CF91089580E090E014
:1002E000FACF1F93CF93DF93282F30E0F901E25527
:1002F000FF4F8491F901E656FF4FD491F901EA5777
:10030000FF4FC491CC23A9F0162F81110E941F0129
:10031000EC2FF0E0EE0FFF1FEE58FF4FA591B491C8
:100320008FB7F894EC91111108C0D095DE23DC93BF
:100330008FBFDF91CF911F910895DE2BF8CFCF9320
:10034000DF9390E0FC01E656FF4F24918A579F4FC0
:10035000FC0184918823C9F090E0880F991FFC016B
:10036000E859FF4FA591B491FC01EE58FF4FC5919C
:10037000D49161110DC09FB7F8948C912095822380
:100380008C938881282328839FBFDF91CF91089584
:10039000623051F49FB7F8943C91822F809583236B
:1003A0008C93E8812E2BEFCF8FB7F894EC912E2B06
:1003B0002C938FBFEACF3FB7F8948091350290918C
:1003C0003602A0913702B091380226B5A89B05C02D
:1003D0002F3F19F00196A11DB11D3FBFBA2FA92FC4
:1003E000982F8827BC01CD01620F711D811D911DC1
:1003F00042E0660F771F881F991F4A95D1F708952D
:100400008F929F92AF92BF92CF92DF92EF92FF9224
:100410004B015C010E94DB016B017C010E94DB014E
:100420006C197D098E099F09683E7340810591050D
:10043000A8F321E0821A9108A108B10888EEC80E3D
:1004400083E0D81EE11CF11C81149104A104B104C5
:1004500029F7FF90EF90DF90CF90BF90AF909F90E3
:100460008F900895862F642F0C949F01862F642F00
:100470000C947101862F0C94480108950895AF9251
:10048000BF92CF92DF92EF92FF920F931F93CF9381
:10049000DF936C017B018B01040F151FEB015E01E3
:1004A000AE18BF08C017D10759F06991D601ED9178
:1004B000FC910190F081E02DC6010995892B79F717
:1004C000C501DF91CF911F910F91FF90EF90DF90C9
:1004D000CF90BF90AF900895FC01538D448D252F90
:1004E00030E0842F90E0821B930B541710F0CF96CE
:1004F000089501970895FC01918D828D981761F000
:10050000A28DAE0FBF2FB11D5D968C91928D9F5F16
:100510009F73928F90E008958FEF9FEF0895FC01F5
:10052000918D828D981731F0828DE80FF11D858DA8
:1005300090E008958FEF9FEF0895FC01918D228D3B
:10054000892F90E0805C9F4F821B91098F739927C0
:1005500008958DE392E00E949D0221E0892B09F429
:1005600020E0822F089580E090E0892B29F00E94FE
:10057000A90281110C9400000895FC01A48DA80F1C
:10058000B92FB11DA35ABF4F2C91848D90E00196D5
:100590008F739927848FA689B7892C93A089B189F5
:1005A0008C91837080648C93938D848D981306C096
:1005B0000288F389E02D80818F7D80830895EF92FA
:1005C000FF920F931F93CF93DF93EC0181E0888F0D
:1005D0009B8D8C8D98131AC0E889F989808185FFDD
:1005E00015C09FB7F894EE89FF896083E889F9897F
:1005F00080818370806480839FBF81E090E0DF9181
:10060000CF911F910F91FF90EF900895F62E0B8DD3
:1006100010E00F5F1F4F0F731127E02E8C8D8E118E
:100620000CC00FB607FCFACFE889F989808185FFF5
:10063000F5CFCE010E94BD02F1CFEB8DEC0FFD2F67
:10064000F11DE35AFF4FF0829FB7F8940B8FEA89B0
:10065000FB8980818062CFCFCF93DF93EC01888DBF
:100660008823B9F0AA89BB89E889F9898C9185FD2D
:1006700003C0808186FD0DC00FB607FCF7CF8C91BB
:1006800085FFF2CF808185FFEDCFCE010E94BD02B4
:10069000E9CFDF91CF9108952091E201260F332712
:1006A000331F21323105ECF420910602FC0190E069
:1006B00080E0243069F082E00895A091E201219168
:1006C000AC014E535E4FA40FB52FB11D2C93019674
:1006D000861798F38091E201680F6093E20180E051
:1006E000089581E008951092060281E08093080247
:1006F0001092070261E082E10E94710161E083E1F2
:100700000E947101E9EBF0E080818E7F808380811F
:100710008D7F808388E48093B80085E48093BC005B
:100720000895CF93DF9391E09093C1018823B9F0AE
:10073000C091B800D091BA008091BC008A7B8093B0
:10074000BC0060E082E10E94710160E083E10E94F0
:1007500071010E947303D093BA00C093B800DF9177
:10076000CF9108950895E091330280913202E81705
:1007700030F4F0E0E456FE4F808190E008958FEF72
:100780009FEF089590913302809132022FEF3FEF57
:10079000981748F4E92FF0E0E456FE4F208130E04E
:1007A0009F5F90933302C901089580913202909126
:1007B0003302891B990B0895CF92DF92EF92FF923B
:1007C0000F931F93CF93DF937C01CB018A0120917C
:1007D0009B01222389F0EB016B01C40ED51ECC15C1
:1007E000DD0569F06991D701ED91FC910190F081EF
:1007F000E02DC7010995F3CF642F0E944C03C80177
:10080000DF91CF911F910F91FF90EF90DF90CF90EC
:100810000895CF93DF931F92CDB7DEB76983209100
:100820009B012223F9F020913002203258F021E080
:1008300030E0FC013383228390E080E00F90DF9171
:10084000CF91089580913102E82FF0E0E558FE4FF6
:10085000998190838F5F809331028093300281E091
:1008600090E0ECCF61E0CE0101960E944C03F7CFFF
:10087000CF92DF92EF92FF920F931F93CF93DF936C
:10088000D62F672FFC01C48181E080939B01C09328
:100890007A0110923102109230028AED92E00E94A9
:1008A00009046D2F8AED92E00E940904D091300274
:1008B000D13208F092C00E94DB016B017C01809173
:1008C0000602811165C082E08093060281E0809378
:1008D00008028FEF8093050210922A02D09329021A
:1008E000ABE7B1E0E9E0F2E080E0D81385C0109218
:1008F0002B0280912B02CC0FC82BC0932B0280912E
:100900000702813009F07CC0109207020E94DB01CF
:100910006B017C0180912B028093BB008091BD0113
:100920009091BE01A091BF01B091C001892B8A2B8B
:100930008B2B99F00E94DB010091BD011091BE014B
:100940002091BF013091C0016C197D098E099F096A
:100950000617170728073907E0F18091BC0083FDCF
:10096000D9CF85EC8093BC000E94DB016B017C0138
:1009700080910602823009F445C0809105028F3FC4
:1009800061F180910502803241F18091050225C01C
:100990008091BD019091BE01A091BF01B091C001B5
:1009A000892B8A2B8B2B09F48ACF0E94DB010091C3
:1009B000BD011091BE012091BF013091C0016C19A1
:1009C0007D098E099F09061717072807390708F0C0
:1009D00076CF8091BC010E94910310923102109257
:1009E000300210929B01DF91CF911F910F91FF90E8
:1009F000EF90DF90CF9008959D9191938F5F75CF89
:100A000085EEB0CF8091BD019091BE01A091BF0154
:100A1000B091C001892B8A2B8B2B09F4A9CF0E949E
:100A2000DB010091BD011091BE012091BF01309109
:100A3000C0016C197D098E099F0906171707280741
:100A4000390708F095CFC5CFCF93DF93CDB7DEB789
:100A500028970FB6F894DEBF0FBECDBF98E0E3E154
:100A6000F1E0DE01119601900D929A95E1F79091D7
:100A7000EE02981708F48FEF90E0880F991F21E09D
:100A800030E02C0F3D1F820F931FFC0160816068D6
:100A900070E086EE92E028960FB6F894DEBF0FBEA7
:100AA000CDBFDF91CF910C94380461E070E086EE09
:100AB00092E00E9438048BE39FE10197F1F7809167
:100AC000EF02882319F080E00C942405089570E06B
:100AD00070640E94380481E090E00895089590E0E9
:100AE00080E00895FB0101900020E9F73197AF0104
:100AF000461B570BDC01ED91FC910280F381E02D48
:100B0000099485ED8093BC008091BD019091BE0158
:100B1000A091BF01B091C0010796A11DB11D23E0B6
:100B2000B695A795979587952A95D1F72091BC0002
:100B300024FD03C01092060208954091BD0150911A
:100B4000BE016091BF017091C001452B462B472B20
:100B500069F30097A105B10541F02AE22A95F1F762
:100B600000C00197A109B109E1CF8091BC010C94AB
:100B700091031F920F920FB60F9211242F933F9360
:100B80008F939F93AF93BF938091390290913A02D4
:100B9000A0913B02B0913C023091340223E0230F3C
:100BA0002D3758F50196A11DB11D20933402809375
:100BB000390290933A02A0933B02B0933C02809199
:100BC000350290913602A0913702B0913802019619
:100BD000A11DB11D8093350290933602A093370278
:100BE000B0933802BF91AF919F918F913F912F9118
:100BF0000F900FBE0F901F90189526E8230F0296B6
:100C0000A11DB11DD2CF1F920F920FB60F921124CA
:100C10002F933F934F935F936F937F938F939F9304
:100C2000AF93BF93EF93FF938DE392E00E94BD02D9
:100C3000FF91EF91BF91AF919F918F917F916F91B4
:100C40005F914F913F912F910F900FBE0F901F908A
:100C500018951F920F920FB60F9211242F938F9316
:100C60009F93EF93FF93E0914D02F0914E028081AC
:100C7000E0915302F091540282FD1BC0908180915B
:100C800056028F5F8F7320915702821741F0E091D7
:100C90005602F0E0E35CFD4F958F80935602FF9182
:100CA000EF919F918F912F910F900FBE0F901F90FA
:100CB00018958081F4CF1F920F920FB60F921124D6
:100CC0002F933F934F935F936F937F938F939F9354
:100CD000AF93BF93EF93FF938091B900887F8036E5
:100CE00009F44AC0F0F5883209F4A7C018F580313C
:100CF00009F49BC0B8F4882309F4F9C0883009F4DA
:100D000094C0FF91EF91BF91AF919F918F917F918F
:100D10006F915F914F913F912F910F900FBE0F9068
:100D20001F901895883109F488C0803251F780935C
:100D3000050214C0803409F49DC040F48033B9F337
:100D40008833F9F68093050285ECB0C0803509F44C
:100D500085C0883509F496C0883499F60E948105CB
:100D6000D0CF883909F48CC038F5883729F050F491
:100D7000883611F0803729F683E0809306021092BE
:100D8000040257C0883809F47BC0803919F08038D4
:100D900009F0B7CF80910402803208F071C0E09171
:100DA000040281E08E0F809304028091BB00F0E08A
:100DB000EC51FE4F80833DC0803B39F0E0F4803A37
:100DC00009F479C0883A09F09CCF84E08093060248
:100DD0001092E3011092E201E0912E02F0912F02B5
:100DE00009958091E20181110FC081E08093E201B9
:100DF0001092C20109C0803C09F4A6CF883C09F4D6
:100E0000A3CF883B09F07DCFE091E30181E08E0F15
:100E10008093E301F0E0EE53FE4F80818093BB00AE
:100E20009091E3018091E20129C080912B0280938F
:100E3000BB0085EC8093BC0064CF90912A02809126
:100E40002902981758F5E0912A0281E08E0F8093CD
:100E50002A02F0E0E75FFD4F8081E9CFE0912A02AE
:100E600081E08E0F80932A028091BB00F0E0E75F63
:100E7000FD4F808390912A02809129029817C8F231
:100E800085E8D8CFE0912A0281E08E0F80932A0274
:100E90008091BB00F0E0E75FFD4F80838091080206
:100EA00081115CCF81E08093070284EA8093BC00CB
:100EB0001092060226CF85EC8093BC0010920602A9
:100EC00080910402803230F4E0910402F0E0EC51B1
:100ED000FE4F10826091040270E0E0912C02F091CC
:100EE0002D0284EE91E00995109204020ACF10922F
:100EF000050234CF1092400210923F0288EE93E038
:100F0000A0E0B0E08093410290934202A09343029C
:100F1000B09344022FE131E030933E0220933D0232
:100F200025EC30E030934A022093490224EC30E073
:100F300030934C0220934B0220EC30E030934E0271
:100F400020934D0221EC30E03093500220934F0269
:100F500022EC30E0309352022093510226EC30E034
:100F6000309354022093530210925602109257026B
:100F700010925802109259021092DD021092DC0277
:100F80008093DE029093DF02A093E002B093E1022F
:100F900081E391E09093DB028093DA021092F402F5
:100FA0001092F8021092F7021092F9028FE491E089
:100FB0009093F3028093F202EEE0F3E01082148249
:100FC00013821582369683E0EA34F807B9F783E096
:100FD00091E0909355038093540380E091E09093C7
:100FE00057038093560384E08093580383E08093F3
:100FF000590387E091E090935303809352038AE072
:1010000090E090935B0380935A0384EF91E0909378
:101010005D0380935C031092600310925F03109253
:101020004E0310924F0310925003109251031092EE
:101030005E031092E9021092E80283E491E090933B
:10104000E7028093E6021092EF028EE38093EA02B9
:1010500080E18093F00282E08093F1020895789419
:1010600084B5826084BD84B5816084BD85B58260AD
:1010700085BD85B5816085BD80916E00816080935E
:101080006E001092810080918100826080938100C7
:1010900080918100816080938100809180008160D7
:1010A000809380008091B10084608093B100809132
:1010B000B00081608093B00080917A00846080935A
:1010C0007A0080917A00826080937A0080917A0021
:1010D000816080937A0080917A00806880937A00A2
:1010E0001092C10061E08EE00E949F0161E08FE0FC
:1010F0000E949F0161E080E10E949F0161E081E127
:101100000E949F0161E08DE00E949F0161E089E003
:101110000E949F01E0914D02F0914E0282E0808397
:10112000E0914902F0914A021082E0914B02F09165
:101130004C028FEC808310925502E0915102F091A5
:10114000520286E08083E0914F02F091500280814C
:1011500080618083E0914F02F0915002808188602D
:101160008083E0914F02F0915002808180688083FB
:10117000E0914F02F091500280818F7D808365E580
:1011800071E08DE392E00E94720562E671E08DE30A
:1011900092E00E9472051092330210923202109275
:1011A0003102109230020E9473038DE392E090931B
:1011B0002F0280932E028EE392E090932D02809373
:1011C0002C0280E18093EB028091F102823018F0D2
:1011D00098E19093EB028093EE028BE39DE0019700
:1011E000F1F76091EB02606270E086EE92E00E949F
:1011F00038048BE496E40197F1F76091EB026062AA
:1012000070E086EE92E00E94380483E592E0019758
:10121000F1F76091EB02606270E086EE92E00E946E
:1012200038046091EB02606270E086EE92E00E940A
:10123000380484E08093EC026CE070E086EE92E08B
:101240000E9438040E94550582E08093ED0266E01A
:1012500070E086EE92E00E94380462E070E086EE74
:1012600092E00E9438048BE39FE10197F1F780E060
:101270000E94240565E671E086EE92E00E94720508
:1012800081E00E94240561E771E086EE92E00E9411
:10129000720561E08EE00E94710161E08FE00E94C2
:1012A000710161E080E10E94710161E081E10E94D1
:1012B000710160E08DE00E94710164EF71E080E0F7
:1012C00090E00E94000260E08EE00E94710160E008
:1012D0008FE00E94710160E080E10E94710160E096
:1012E00081E10E94710161E08DE00E94710161E085
:1012F00089E00E9471016AEF70E080E090E00E9456
:10130000000260E089E00E9471010E945505812C75
:10131000912C5401839444244A94542C50E0652E1B
:1013200050E0752E51E050935E038FB7F8944091D2
:10133000390250913A0260913B0270913C028FBF9A
:1013400080914E0390914F03A0915003B0915103AF
:10135000481B590B6A0B7B0B80915A0390915B03DE
:10136000B0E0A0E084179507A607B70708F018C1FA
:10137000C0E080915803C81760F4E0915403F091E5
:101380005503EC0FF11D62E080810E949F01CF5F49
:10139000F0CF312C80915903381608F05FC0032D2F
:1013A00010E0E0915603F0915703E00FF11F61E068
:1013B00080810E949F01E0915603F0915703E00F56
:1013C000F11F60E080810E947101D501C401032CEE
:1013D00004C0880F991FAA1FBB1F0A94D2F76C0183
:1013E0007C01E094F094212C809158032816F8F4A5
:1013F000C22DD0E0E0915403F0915503EC0FFD1F96
:1014000080810E9448012496CC0FDD1FCE50DD4F15
:10141000892B41F4888199818C299D29998388831E
:101420002394E2CF888199818E219F21F7CFE0918B
:101430005603F0915703E00FF11F61E080810E9495
:1014400071018091560390915703080F191F60E0B6
:10145000F80180810E949F0133949CCF02EF12E03B
:10146000E8018F8D98A1892B21F41C8E5E8E4D8E04
:1014700019A22696F3E0CE32DF0799F7D12C80919E
:101480005803D81608F053C0C12CED2CF12CEE0CEB
:10149000FF1CC70186509D4F7C0120915903C21645
:1014A00008F043C0F701608171810C2C02C0769571
:1014B00067950A94E2F7D29E900111242C0D311DFC
:1014C000E2EFF2E080E0458D568D2417350709F4F0
:1014D00075C08F5F36968A30B1F760FF24C0E2EFA7
:1014E000F2E090E080E0448D411118C0E091520399
:1014F000F0915303E20FF31F408156E0589FF00133
:10150000599FF00D1124EE50FD4F448F368F258FDB
:1015100010A2178E61E00E94AF0005C001963696BA
:101520008A30910501F7C394B8CFD394A8CF80E057
:10153000F80191A19111892F0A5F1F4FC017D107A0
:10154000B9F79FB7F8944091390250913A026091EF
:101550003B0270913C029FBF40934E0350934F0358
:1015600060935003709351038823D1F0809113034B
:101570008823B1F08091110390911203019781F4B7
:10158000C0910E03C1110FC06114710409F4CACED9
:101590000E94A902882309F4C5CE0E940000C2CE91
:1015A00010925E03F1CF81E00E9424056C2F70E061
:1015B000706486EE92E00E943804E6CF6170ABCF93
:1015C000EE0FFF1F0590F491E02D0994F894FFCFE2
:1015D000080706020304053132333435363738390B
:1015E0002A3023000040001400540000000000DFF7
:1015F000023F026C022C039D027B028F020000005E
:10160000000904DC036F05B203D503C203B3030072
:1016100000000067053F026F056E05000000003204
:101620000236023A0248656C6C6F2048756D616E37
:1016300021000D0A00416C61726D2050616E656C75
:0A16400000763034323032350000FD
:00000001FF
