:100000000C9462000C948A000C948A000C948A0070
:100010000C948A000C948A000C948A000C948A0038
:100020000C948A000C948A000C948A000C948A0028
:100030000C948A000C948A000C948A000C948A0018
:100040000C94B9050C948A000C9429060C940306B0
:100050000C948A000C948A000C948A000C948A00F8
:100060000C945B060C948A0000000000240027001A
:100070002A0000000000250028002B0000000000DE
:1000800023002600290004040404040404040202DA
:100090000202020203030303030301020408102007
:1000A0004080010204081020010204081020000012
:1000B0000008000201000003040700000000000027
:1000C00000007A0711241FBECFEFD8E0DEBFCDBFFE
:1000D00011E0A0E0B1E0E2EEF5E102C005900D9282
:1000E000A638B107D9F723E0A6E8B1E001C01D9218
:1000F000AD36B207E1F710E0C2E6D0E004C02197C8
:10010000FE010E94E90AC136D107C9F70E942F08F3
:100110000C94EF0A0C94000096E0899FD001112402
:10012000A250BD4F90967C936E935F9791E091960D
:100130009C939197E0916B03F0916C0390916A030B
:10014000992339F0309751F0811108C080911A033A
:100150000994309719F05C968C91FACF0895CF925C
:10016000DF92EF92FF920F931F9396E0899FF00129
:100170001124E250FD4F11A2278D30A1213031050D
:1001800051F178F02230310509F451C023303105A6
:1001900009F452C01F910F91FF90EF90DF90CF9024
:1001A00008956623B9F361E070E00E948C002FB7D8
:1001B000F8948091450290914602A0914702B09137
:1001C00048022FBF8093560390935703A093580380
:1001D000B0935903DFCF9FB7F894C0904502D090F9
:1001E0004602E0904702F09048029FBF00915603FC
:1001F000109157032091580330915903C01AD10A26
:10020000E20AF30A009168031091690330E020E0EC
:100210000C151D052E053F0550F462E070E01F919E
:100220000F91FF90EF90DF90CF900C948C006111B4
:10023000B1CF63E070E0F3CF70E060E0F0CF8330E7
:1002400081F028F4813099F08230A9F00895873048
:10025000A9F08830C9F08430B1F4809180008F7D9E
:1002600003C0809180008F7780938000089584B5CB
:100270008F7784BD089584B58F7DFBCF8091B000CA
:100280008F778093B00008958091B0008F7DF9CF73
:10029000CF93DF93282F30E0F901E255FF4F84918F
:1002A000F901E656FF4FD491F901EA57FF4FC49187
:1002B000CC23A1F081110E941F01EC2FF0E0EE0F82
:1002C000FF1FE458FF4FA591B491EC91ED2381E01D
:1002D00090E009F480E0DF91CF91089580E090E014
:1002E000FACF1F93CF93DF93282F30E0F901E25527
:1002F000FF4F8491F901E656FF4FD491F901EA5777
:10030000FF4FC491CC23A9F0162F81110E941F0129
:10031000EC2FF0E0EE0FFF1FEE58FF4FA591B491C8
:100320008FB7F894EC91111108C0D095DE23DC93BF
:100330008FBFDF91CF911F910895DE2BF8CFCF9320
:10034000DF9390E0FC01E656FF4F24918A579F4FC0
:10035000FC0184918823C9F090E0880F991FFC016B
:10036000E859FF4FA591B491FC01EE58FF4FC5919C
:10037000D49161110DC09FB7F8948C912095822380
:100380008C938881282328839FBFDF91CF91089584
:10039000623051F49FB7F8943C91822F809583236B
:1003A0008C93E8812E2BEFCF8FB7F894EC912E2B06
:1003B0002C938FBFEACF3FB7F89480914102909180
:1003C0004202A0914302B091440226B5A89B05C009
:1003D0002F3F19F00196A11DB11D3FBFBA2FA92FC4
:1003E000982F8827BC01CD01620F711D811D911DC1
:1003F00042E0660F771F881F991F4A95D1F708952D
:100400008F929F92AF92BF92CF92DF92EF92FF9224
:100410004B015C010E94DB016B017C010E94DB014E
:100420006C197D098E099F09683E7340810591050D
:10043000A8F321E0821A9108A108B10888EEC80E3D
:1004400083E0D81EE11CF11C81149104A104B104C5
:1004500029F7FF90EF90DF90CF90BF90AF909F90E3
:100460008F900895862F642F0C949F01862F642F00
:100470000C947101862F0C94480108950895AF9251
:10048000BF92CF92DF92EF92FF920F931F93CF9381
:10049000DF936C017B018B01040F151FEB015E01E3
:1004A000AE18BF08C017D10759F06991D601ED9178
:1004B000FC910190F081E02DC6010995892B79F717
:1004C000C501DF91CF911F910F91FF90EF90DF90C9
:1004D000CF90BF90AF900895FC01538D448D252F90
:1004E00030E0842F90E0821B930B541710F0CF96CE
:1004F000089501970895FC01918D828D981761F000
:10050000A28DAE0FBF2FB11D5D968C91928D9F5F16
:100510009F73928F90E008958FEF9FEF0895FC01F5
:10052000918D828D981731F0828DE80FF11D858DA8
:1005300090E008958FEF9FEF0895FC01918D228D3B
:10054000892F90E0805C9F4F821B91098F739927C0
:10055000089589E492E00E949D0221E0892B09F42C
:1005600020E0822F089580E090E0892B29F00E94FE
:10057000A90281110C9400000895FC01A48DA80F1C
:10058000B92FB11DA35ABF4F2C91848D90E00196D5
:100590008F739927848FA689B7892C93A089B189F5
:1005A0008C91837080648C93938D848D981306C096
:1005B0000288F389E02D80818F7D80830895EF92FA
:1005C000FF920F931F93CF93DF93EC0181E0888F0D
:1005D0009B8D8C8D98131AC0E889F989808185FFDD
:1005E00015C09FB7F894EE89FF896083E889F9897F
:1005F00080818370806480839FBF81E090E0DF9181
:10060000CF911F910F91FF90EF900895F62E0B8DD3
:1006100010E00F5F1F4F0F731127E02E8C8D8E118E
:100620000CC00FB607FCFACFE889F989808185FFF5
:10063000F5CFCE010E94BD02F1CFEB8DEC0FFD2F67
:10064000F11DE35AFF4FF0829FB7F8940B8FEA89B0
:10065000FB8980818062CFCFCF93DF93EC01888DBF
:100660008823B9F0AA89BB89E889F9898C9185FD2D
:1006700003C0808186FD0DC00FB607FCF7CF8C91BB
:1006800085FFF2CF808185FFEDCFCE010E94BD02B4
:10069000E9CFDF91CF9108952091EE01260F332706
:1006A000331F21323105ECF420911202FC0190E05D
:1006B00080E0243069F082E00895A091EE0121915C
:1006C000AC0142535E4FA40FB52FB11D2C93019680
:1006D000861798F38091EE01680F6093EE0180E039
:1006E000089581E008951092120281E0809314022F
:1006F0001092130261E082E10E94710161E083E1E6
:100700000E947101E9EBF0E080818E7F808380811F
:100710008D7F808388E48093B80085E48093BC005B
:100720000895CF93DF9391E09093CD018823B9F0A2
:10073000C091B800D091BA008091BC008A7B8093B0
:10074000BC0060E082E10E94710160E083E10E94F0
:1007500071010E947303D093BA00C093B800DF9177
:10076000CF9108950895E0913F0280913E02E817ED
:1007700030F4F0E0E855FE4F808190E008958FEF6F
:100780009FEF089590913F0280913E022FEF3FEF3F
:10079000981748F4E92FF0E0E855FE4F208130E04B
:1007A0009F5F90933F02C901089580913E0290910E
:1007B0003F02891B990B0895CF92DF92EF92FF922F
:1007C0000F931F93CF93DF937C01CB018A0120917C
:1007D000A701222389F0EB016B01C40ED51ECC15B5
:1007E000DD0569F06991D701ED91FC910190F081EF
:1007F000E02DC7010995F3CF642F0E944C03C80177
:10080000DF91CF911F910F91FF90EF90DF90CF90EC
:100810000895CF93DF931F92CDB7DEB76983209100
:10082000A7012223F9F020913C02203258F021E068
:1008300030E0FC013383228390E080E00F90DF9171
:10084000CF91089580913D02E82FF0E0E957FE4FE7
:10085000998190838F5F80933D0280933C0281E079
:1008600090E0ECCF61E0CE0101960E944C03F7CFFF
:10087000CF92DF92EF92FF920F931F93CF93DF936C
:10088000D62F672FFC01C48181E08093A701C0931C
:10089000860110923D0210923C0286EE92E00E9488
:1008A00009046D2F86EE92E00E940904D0913C026B
:1008B000D13208F092C00E94DB016B017C01809173
:1008C0001202811165C082E08093120281E0809360
:1008D00014028FEF8093110210923602D0933502EA
:1008E000A7E8B1E0E5E1F2E080E0D81385C010921E
:1008F000370280913702CC0FC82BC093370280910A
:100900001302813009F07CC0109213020E94DB01B7
:100910006B017C01809137028093BB008091C901FB
:100920009091CA01A091CB01B091CC01892B8A2B67
:100930008B2B99F00E94DB010091C9011091CA0133
:100940002091CB013091CC016C197D098E099F0952
:100950000617170728073907E0F18091BC0083FDCF
:10096000D9CF85EC8093BC000E94DB016B017C0138
:1009700080911202823009F445C0809111028F3FAC
:1009800061F180911102803241F18091110225C004
:100990008091C9019091CA01A091CB01B091CC0185
:1009A000892B8A2B8B2B09F48ACF0E94DB010091C3
:1009B000C9011091CA012091CB013091CC016C1971
:1009C0007D098E099F09061717072807390708F0C0
:1009D00076CF8091C8010E94910310923D0210923F
:1009E0003C021092A701DF91CF911F910F91FF90D0
:1009F000EF90DF90CF9008959D9191938F5F75CF89
:100A000085EEB0CF8091C9019091CA01A091CB0130
:100A1000B091CC01892B8A2B8B2B09F4A9CF0E9492
:100A2000DB010091C9011091CA012091CB013091E5
:100A3000CC016C197D098E099F0906171707280735
:100A4000390708F095CFC5CFCF93DF93CDB7DEB789
:100A500028970FB6F894DEBF0FBECDBF98E0E3E154
:100A6000F1E0DE01119601900D929A95E1F79091D7
:100A7000FA02981708F48FEF90E0880F991F21E091
:100A800030E02C0F3D1F820F931FFC0160816068D6
:100A900070E082EF92E028960FB6F894DEBF0FBEAA
:100AA000CDBFDF91CF910C94380461E070E082EF0C
:100AB00092E00E9438048BE39FE10197F1F7809167
:100AC000FB02882319F080E00C942405089570E05F
:100AD00070640E94380481E090E00895089590E0E9
:100AE00080E00895FB0101900020E9F73197AF0104
:100AF000461B570BDC01ED91FC910280F381E02D48
:100B0000099485ED8093BC008091C9019091CA0140
:100B1000A091CB01B091CC010796A11DB11D23E09E
:100B2000B695A795979587952A95D1F72091BC0002
:100B300024FD03C01092120208954091C901509102
:100B4000CA016091CB017091CC01452B462B472BFC
:100B500069F30097A105B10541F02AE22A95F1F762
:100B600000C00197A109B109E1CF8091C8010C949F
:100B700091031F920F920FB60F9211242F933F9360
:100B80008F939F93AF93BF938091450290914602BC
:100B9000A0914702B09148023091400223E0230F18
:100BA0002D3758F50196A11DB11D20934002809369
:100BB000450290934602A0934702B0934802809169
:100BC000410290914202A0914302B09144020196E9
:100BD000A11DB11D8093410290934202A093430254
:100BE000B0934402BF91AF919F918F913F912F910C
:100BF0000F900FBE0F901F90189526E8230F0296B6
:100C0000A11DB11DD2CF1F920F920FB60F921124CA
:100C10002F933F934F935F936F937F938F939F9304
:100C2000AF93BF93EF93FF9389E492E00E94BD02DC
:100C3000FF91EF91BF91AF919F918F917F916F91B4
:100C40005F914F913F912F910F900FBE0F901F908A
:100C500018951F920F920FB60F9211242F938F9316
:100C60009F93EF93FF93E0915902F0915A02808194
:100C7000E0915F02F091600282FD1BC09081809143
:100C800062028F5F8F7320916302821741F0E091BF
:100C90006202F0E0E75BFD4F958F80936202FF9167
:100CA000EF919F918F912F910F900FBE0F901F90FA
:100CB00018958081F4CF1F920F920FB60F921124D6
:100CC0002F933F934F935F936F937F938F939F9354
:100CD000AF93BF93EF93FF938091B900887F8036E5
:100CE00009F44AC0F0F5883209F4A7C018F580313C
:100CF00009F49BC0B8F4882309F4F9C0883009F4DA
:100D000094C0FF91EF91BF91AF919F918F917F918F
:100D10006F915F914F913F912F910F900FBE0F9068
:100D20001F901895883109F488C0803251F780935C
:100D3000110214C0803409F49DC040F48033B9F32B
:100D40008833F9F68093110285ECB0C0803509F440
:100D500085C0883509F496C0883499F60E948105CB
:100D6000D0CF883909F48CC038F5883729F050F491
:100D7000883611F0803729F683E0809312021092B2
:100D8000100257C0883809F47BC0803919F08038C8
:100D900009F0B7CF80911002803208F071C0E09165
:100DA000100281E08E0F809310028091BB00F0E072
:100DB000E051FE4F80833DC0803B39F0E0F4803A43
:100DC00009F479C0883A09F09CCF84E0809312023C
:100DD0001092EF011092EE01E0913A02F0913B0285
:100DE00009958091EE0181110FC081E08093EE01A1
:100DF0001092CE0109C0803C09F4A6CF883C09F4CA
:100E0000A3CF883B09F07DCFE091EF0181E08E0F09
:100E10008093EF01F0E0E253FE4F80818093BB00AE
:100E20009091EF018091EE0129C08091370280936B
:100E3000BB0085EC8093BC0064CF9091360280911A
:100E40003502981758F5E091360281E08E0F8093B5
:100E50003602F0E0EB5EFD4F8081E9CFE091360293
:100E600081E08E0F809336028091BB00F0E0EB5E54
:100E7000FD4F808390913602809135029817C8F219
:100E800085E8D8CFE091360281E08E0F809336025C
:100E90008091BB00F0E0EB5EFD4F808380911402F7
:100EA00081115CCF81E08093130284EA8093BC00BF
:100EB0001092120226CF85EC8093BC001092120291
:100EC00080911002803230F4E0911002F0E0E051A5
:100ED000FE4F10826091100270E0E0913802F091B4
:100EE000390280EF91E00995109210020ACF10921A
:100EF000110234CF10924C0210924B0288EE93E014
:100F0000A0E0B0E080934D0290934E02A0934F0278
:100F1000B09350022FE131E030934A02209349020E
:100F200025EC30E0309356022093550224EC30E05B
:100F3000309358022093570220EC30E030935A024D
:100F40002093590221EC30E030935C0220935B0245
:100F500022EC30E030935E0220935D0226EC30E01C
:100F60003093600220935F0210926202109263023B
:100F700010926402109265021092E9021092E80247
:100F80008093EA029093EB02A093EC02B093ED02FF
:100F900081E391E09093E7028093E60210920003D0
:100FA0001092040310920303109205038FE491E062
:100FB0009093FF028093FE02EAE1F3E01082148234
:100FC00013821582369683E0E635F807B9F783E099
:100FD00091E0909361038093600380E091E09093AF
:100FE00063038093620384E08093640383E08093CF
:100FF000650387E091E090935F0380935E038AE04E
:1010000090E0909367038093660384EF91E0909360
:1010100069038093680310926C0310926B03109223
:101020005A0310925B0310925C0310925D031092BE
:101030006A031092F5021092F40283E491E0909317
:10104000F3028093F2021092FB028EE38093F60289
:1010500080E18093FC0282E08093FD020895789401
:1010600084B5826084BD84B5816084BD85B58260AD
:1010700085BD85B5816085BD80916E00816080935E
:101080006E001092810080918100826080938100C7
:1010900080918100816080938100809180008160D7
:1010A000809380008091B10084608093B100809132
:1010B000B00081608093B00080917A00846080935A
:1010C0007A0080917A00826080937A0080917A0021
:1010D000816080937A0080917A00806880937A00A2
:1010E0001092C10061E08DE00E949F0161E08EE0FE
:1010F0000E949F0161E08FE00E949F0161E080E11A
:101100000E949F0161E081E10E949F0161E089E00E
:101110000E949F01E0915902F0915A0282E080837F
:10112000E0915502F09156021082E0915702F09141
:1011300058028FEC808310926102E0915D02F09181
:101140005E0286E08083E0915B02F0915C02808128
:1011500080618083E0915B02F0915C028081886015
:101160008083E0915B02F0915C02808180688083E3
:10117000E0915B02F0915C0280818F7D808365E568
:1011800071E089E492E00E94720562E671E089E410
:1011900092E00E94720510923F0210923E0210925D
:1011A0003D0210923C020E9473038DE392E0909303
:1011B0003B0280933A028EE392E09093390280934F
:1011C000380280E18093F7028091FD02823018F0AE
:1011D00098E19093F7028093FA028BE39DE00197E8
:1011E000F1F76091F702606270E082EF92E00E9496
:1011F00038048BE496E40197F1F76091F70260629E
:1012000070E082EF92E00E94380483E592E001975B
:10121000F1F76091F702606270E082EF92E00E9465
:1012200038046091F702606270E082EF92E00E9401
:10123000380484E08093F8026CE070E082EF92E082
:101240000E9438040E94550582E08093F90266E00E
:1012500070E082EF92E00E94380462E070E082EF7A
:1012600092E00E9438048BE39FE10197F1F780E060
:101270000E94240565E671E082EF92E00E9472050B
:1012800081E00E94240561E771E082EF92E00E9414
:10129000720561E08DE00E94710161E08EE00E94C4
:1012A000710161E08FE00E94710161E080E10E94C4
:1012B000710160E081E10E94710168EE73E080E0FD
:1012C00090E00E94000260E08DE00E94710160E009
:1012D0008EE00E94710160E08FE00E94710160E089
:1012E00080E10E94710161E081E10E94710161E091
:1012F00089E00E9471016AEF70E080E090E00E9456
:10130000000260E089E00E9471010E94550580E0C2
:101310000E94240569E771E082EF92E00E94720565
:10132000812C912C5401839444244A94542C50E0F1
:10133000652E50E0752E51E050936A038FB7F894F4
:1013400040914502509146026091470270914802D7
:101350008FBF80915A0390915B03A0915C03B09181
:101360005D03481B590B6A0B7B0B809166039091C0
:101370006703B0E0A0E084179507A607B70708F059
:1013800018C1C0E080916403C81760F4E091600365
:10139000F0916103EC0FF11D62E080810E949F01DA
:1013A000CF5FF0CF312C80916503381608F05FC015
:1013B000032D10E0E0916203F0916303E00FF11F51
:1013C00061E080810E949F01E0916203F0916303DC
:1013D000E00FF11F60E080810E947101D501C4011E
:1013E000032C04C0880F991FAA1FBB1F0A94D2F7B1
:1013F0006C017C01E094F094212C80916403281608
:10140000F8F4C22DD0E0E0916003F0916103EC0F9D
:10141000FD1F80810E9448012496CC0FDD1FC25021
:10142000DD4F892B41F4888199818C299D299983ED
:1014300088832394E2CF888199818E219F21F7CFE1
:10144000E0916203F0916303E00FF11F61E080819E
:101450000E9471018091620390916303080F191F2C
:1014600060E0F80180810E949F0133949CCF0EEFD1
:1014700012E0E8018F8D98A1892B21F41C8E5E8EDD
:101480004D8E19A22696F3E0CA33DF0799F7D12CC7
:1014900080916403D81608F053C0C12CED2CF12CB8
:1014A000EE0CFF1CC7018A5F9C4F7C0120916503F5
:1014B000C21608F043C0F701608171810C2C02C094
:1014C000769567950A94E2F7D29E900111242C0D2F
:1014D000311DEEEFF2E080E0458D568D2417350783
:1014E00009F475C08F5F36968A30B1F760FF24C06B
:1014F000EEEFF2E090E080E0448D411118C0E09101
:101500005E03F0915F03E20FF31F408156E0589FA6
:10151000F001599FF00D1124E250FD4F448F368F9A
:10152000258F10A2178E61E00E94AF0005C00196C2
:1015300036968A30910501F7C394B8CFD394A8CFDB
:1015400080E0F80191A19111892F0A5F1F4FC01708
:10155000D107B9F79FB7F8944091450250914602E0
:1015600060914702709148029FBF40935A03509385
:101570005B0360935C0370935D038823D1F08091DB
:101580001F038823B1F080911D0390911E030197E2
:1015900081F4C0911A03C1110FC06114710409F4E0
:1015A000CACE0E94A902882309F4C5CE0E94000079
:1015B000C2CE10926A03F1CF81E00E9424056C2F05
:1015C00070E0706482EF92E00E943804E6CF6170B0
:1015D000ABCFEE0FFF1F0590F491E02D0994F89426
:0215E000FFCF3B
:1015E20008070602030405313233343536373839F9
:1015F2002A3023000040001400540000000000DFE5
:10160200023F026C022C039D027B028F020000004B
:10161200000904DC036F05B203D503C203B3030060
:1016220000000067053F026F056E050000000032F2
:101632000236023A0248656C6C6F2048756D616E25
:1016420021000D0A00416C61726D2050616E656C63
:101652000076303432303235005072657373206157
:06166200206B6579000019
:00000001FF
